:020000040800F2
:10000000000002200DD00008559F0008579F0008EF
:10001000599F00085B9F00085D9F000800000000DA
:10002000000000000000000000000000B18D00088A
:100030005F9F000800000000518E0008B58E000888
:100040005DD000085DD000085DD000085DD00008DC
:100050005DD000085DD000085DD000085DD00008CC
:10006000719F00085DD000085DD000085DD00008D9
:100070005DD000085DD000085DD000085DD00008AC
:100080005DD000085DD000085DD000085DD000089C
:100090005DD000085DD000085DD000087B9F00089F
:1000A0005DD00008619F00085DD000085DD00008A9
:1000B000859F00085DD000085DD00008959F00086E
:1000C000A59F00085DD000085DD000085DD0000845
:1000D0005DD00008B59F0008C59F0008D59F0008A7
:1000E0005DD000085DD00008000000005DD0000871
:1000F0005DD000085DD000085DD000085DD000082C
:100100005DD00008E99F00085DD000085DD00008C0
:10011000F99F00080DA000085DD000085DD0000820
:100120005DD000085DD000085DD000085DD00008FB
:100130005DD000085DD000085DD000085DD00008EB
:1001400000000000000000000000000000000000AF
:100150005DD000085DD000085DD000081DA000083B
:100160005DD000085DD000085DD000085DD00008BB
:100170005DD000085DD000085DD0000800000000E0
:100180005DD000085DD000082DA0000841A0000847
:100190005DD000085DD000085DD000085DD000088B
:1001A0005DD000085DD000085DD000085DD000087B
:1001B0005DD000085DD000085DD000085DD000086B
:1001C0005DD000085DD000085DD000085DD000085B
:1001D0005DD000085DD000085DD000085DD000084B
:1001E0005DD000085DD000085DD000085DD000083B
:1001F0005DD000085DD000085DD000085DD000082B
:100200005DD000085DD000085DD000085DD000081A
:100210005DD000085DD000085DD000085DD000080A
:100220005DD000085DD000085DD00008000000002F
:100230005DD000085DD00008000000005DD000081F
:100240005DD000085DD000085DD000085DD00008DA
:100250005DD000085DD000085DD000085DD00008CA
:100260005DD000085DD000085DD000085DD00008BA
:100270005DD000085DD000085DD0000800000000DF
:100280005DD00008000000005DD000080000000004
:08029000000000005DD0000831
:1002A00010B5054C237833B9044B13B10448AFF3B0
:1002B00000800123237010BD880100200000000091
:1002C00014D9000808B5034B1BB103490348AFF329
:1002D000008008BD000000008C01002014D9000837
:1002E00053B94AB9002908BF00281CBF4FF0FF319D
:1002F0004FF0FF3000F072B9ADF1080C6DE904CE9B
:1003000000F006F8DDF804E0DDE9022304B07047F0
:100310002DE9F047089E04468846002B4BD18A42BF
:10032000154667D9B2FA82F24AB1C2F1200701FA42
:1003300002F320FA07F7954047EA030894404FEA92
:10034000154E230CB8FBFEF71FFA85FC0EFB178831
:1003500043EA084307FB0CF1994209D9EB1807F16E
:10036000FF3080F01B81994240F21881023F2B44FC
:100370005B1AA4B2B3FBFEF00EFB103344EA034455
:1003800000FB0CFCA44509D92C1900F1FF3380F0C7
:100390000781A44540F2048102382C4440EA07401A
:1003A000A4EB0C0400271EB1D4400023C6E900438F
:1003B0003946BDE8F0878B4209D9002E00F0EB806A
:1003C0000027C6E9000138463946BDE8F087B3FA90
:1003D00083F7002F47D18B4202D3824200F2FA808A
:1003E000841A61EB030301209846002EE0D0C6E991
:1003F0000048DDE702B9FFDEB2FA82F2002A40F0DF
:100400008F80491B4FEA154E1FFA85F80127B1FB73
:10041000FEFC230C0EFB1C1143EA014308FB0CF10C
:10042000994207D9EB180CF1FF3002D2994200F241
:10043000CD808446591AA3B2B1FBFEF00EFB101416
:1004400043EA044408FB00F8A04507D92C1900F141
:10045000FF3302D2A04500F2B6801846A4EB080490
:1004600040EA0C409FE7C7F1200CBB4022FA0CFE8B
:100470004EEA030E01FA07F420FA0CF521FA0CF308
:100480004FEA1E482543B3FBF8F92C0C08FB19333F
:100490001FFA8EFA44EA034309FB0AF49C4202FA6B
:1004A00007F200FA07F10BD91EEB030309F1FF3045
:1004B00080F087809C4240F28480A9F10209734455
:1004C0001B1BADB2B3FBF8F008FB103345EA034445
:1004D00000FB0AFAA24508D91EEB040400F1FF3321
:1004E0006BD2A24569D90238744440EA0940A0FBA6
:1004F0000289A4EB0A044C45C2464B4654D351D062
:10050000002E69D0B1EB0A0564EB030404FA0CFC7D
:10051000FD40FC404CEA0505C6E90054002747E7CA
:10052000C2F1200320FA03F7954001FA02F021FA04
:1005300003F34FEA154E3843010CB3FBFEF71FFAE5
:1005400085F80EFB173341EA034107FB08F38B42A2
:1005500004FA02F407D9691807F1FF3C2FD28B4245
:100560002DD9023F2944CB1A81B2B3FBFEF00EFB1A
:10057000103341EA034100FB08F38B4207D96918A5
:1005800000F1FF3C17D28B4215D902382944C91A11
:1005900040EA07473BE73746304609E70746E7E6C4
:1005A0001846FBE64145ABD2B8EB020A69EB0E02F6
:1005B00001381346A4E76046E9E7184695E7674621
:1005C000D1E781467CE702382C4447E7ACF1020CC6
:1005D0002B442FE7384608E73746E9E6704700BF67
:1005E000034613F8012B002AFBD1181A0138704773
:1005F00001F0FF01102A2BDB10F0070F08D010F8D4
:10060000013B013A8B422DD010F0070F42B3F6D1D7
:10061000F0B441EA012141EA014122F007047FF0F0
:1006200000070023F0E80256083C85EA010586EA47
:10063000010685FA47F5A3FA87F586FA47F6A5FA83
:1006400087F68EB9EED1F0BC01F0FF0102F007028F
:1006500032B110F8013B013A83EA010313B1F8D13A
:100660000020704701387047002D06BF354603381B
:10067000073815F0010F07D1013015F4807F02BF54
:10068000013015F4C03F0130F0BC0138704700BFA5
:1006900010B5032000F032F8002009F01BFC10B167
:1006A0000124204610BD044609F0F2FBF9E70000E2
:1006B000034B1B78034A11680B441360704700BF5B
:1006C00000000020A4010020014B1868704700BF03
:1006D000A401002038B50446FFF7F6FF0546B4F143
:1006E000FF3F02D0044B1B781C44FFF7EDFF401B7B
:1006F000A042FAD338BD00BF000000200649CB68F5
:1007000023F4E0631B041B0C000200F4E0600343CD
:10071000024A1A43CA60704700ED00E00000FA0583
:1007200030B4154BDB68C3F30223C3F10704042C78
:1007300028BF04241D1D062D14D9033B4FF0FF359F
:1007400005FA04F421EA0401994005FA03F322EAC8
:1007500003031943002807DB0901C9B2074B1954E9
:1007600030BC70470023E9E700F00F000901C9B26F
:10077000034B1954F4E700BF00ED00E000E400E093
:1007800014ED00E0002807DB00F01F024009012300
:100790009340024A42F82030704700BF00E100E079
:1007A000BFF35F8F044A536A23F480335362034BD1
:1007B00000225A60704700BF00ED00E090ED00E0BD
:1007C00040F00100054B5860054A536A43F48033FA
:1007D0005362BFF34F8FBFF36F8F704790ED00E010
:1007E00000ED00E04278134B9A60037823B9114B77
:1007F0000022DA601A61704743680E4AD360017BB9
:10080000C37A1B0643EA0173817A43EAC143417B01
:1008100043EA8143817B43EA4143C17B43EA01438D
:10082000417A43EA0123017A43EA410301780B4309
:100830001361704790ED00E000284ED008B50346E4
:1008400090F83520D2B2022A03D0802242650120DE
:1008500008BD026823491144B1F5956F2FD911687D
:1008600021F00E01116001681E4A0A44B2F5956F2D
:100870002ED80A6822F001020A60196E0A6822F472
:1008800080720A60D96D01228A4017494A605A6E07
:10089000996E5160DA6E32B1116821F48071116085
:1008A0001A6F596F5160002283F83420012283F8B7
:1008B00035201A6D9AB1184690470020C8E70421E8
:1008C00080F83510136823F0010313600020BFE7A0
:1008D0000A6822F001020A60CFE701207047002079
:1008E000B6E700BFF0FFFDBF0054025800230F2BF6
:1008F00000F2E980F0B482B03DE0092200E000227D
:10090000B2403A430234704E46F824206F4A1468CD
:10091000EA4302EA04064F6817F4803F01D045EA33
:1009200004066A4C2660666802EA06044F6817F4FB
:10093000003F01D045EA0604644E74604FF0B044B5
:10094000246802EA04064F6817F4801F01D045EAC4
:1009500004064FF0B0442660646822404E6816F4E6
:10096000001F01D045EA04024FF0B0446260013339
:100970000F2B00F2A58001229A400C6804EA0205C0
:10098000AA42F4D14C68122C18BF022C10D1DE08F8
:10099000083650F826C003F00704A7000F24BC4017
:1009A0002CEA040C0C69BC4044EA0C0440F82640D4
:1009B00004685F000326BE40F64306EA040C4C6858
:1009C00004F00304BC4044EA0C0404604C6804F1E5
:1009D000FF3C112C18BFBCF1010F01D9122C11D111
:1009E000846806EA040CCC68BC4044EA0C048460C9
:1009F000446824EA020C4C68C4F300129A4042EAAC
:100A00000C024260C26816408A68BA403243C26033
:100A10004A6812F0805FAAD02D4AD2F8F44044F020
:100A20000204C2F8F440D2F8F42002F0020201926B
:100A3000019A9C08A61C244A52F8267003F003026F
:100A400096000F22B24027EA0207224A90423FF462
:100A500056AF02F58062904222D002F58062904249
:100A600020D002F5806290421ED002F58062904252
:100A70001CD002F5806290421AD002F5806290424A
:100A800018D002F58062904216D002F58062904242
:100A900014D002F5806290423FF42FAF0A222FE774
:100AA00001222DE702222BE7032229E7042227E770
:100AB000052225E7062223E7072221E708221FE770
:100AC00002B0F0BC70477047000400588000005826
:100AD00000440258000002580AB94183704701835C
:100AE00070474369594041617047000008B5054BA4
:100AF0009B68034200D108BD024B98600CF004F8DB
:100B0000F9E700BF8000005803689A6912F0020FED
:100B100001D000229A6203689A6912F0010F03D192
:100B20009A6942F001029A61704710B411F0010F06
:100B300009D090F8413003F02803282B01D0F2238C
:100B400002E0422300E0002311F0020F09D043F03D
:100B5000440490F8412002F02802282A19D043F0DA
:100B6000F40311F0040F01D043F0B80301F01102B7
:100B7000112A10D001F0120112290FD0122910D021
:100B800001680A6822EA03030B6000205DF8044B49
:100B900070472346E5E743F09003EBE743F020037B
:100BA000ECE743F04003EBE7002857D010B50446CC
:100BB00090F84130002B41D0242384F84130226842
:100BC000136823F0010313606368226823F07063E5
:100BD00013612268936823F400439360E368012B58
:100BE00031D0A368226843F404439360E368022B86
:100BF0002FD0226851681A4B0B4353602268D36888
:100C000023F40043D360236962691343A169226816
:100C100043EA0123D360E369216A22680B4313602E
:100C20002268136843F001031360002060642023EE
:100C300084F84130206384F8420010BD80F84030D1
:100C400008F078FCB8E7A368226843F40043936097
:100C5000CCE723684FF400625A60CAE7012070476E
:100C60000080000208B5036899691A68436B03B1F4
:100C7000984708BD7047704710B50446002380F8B8
:100C8000423090F84130DBB2292B05D090F841304A
:100C9000DBB22A2B0FD010BD282380F8413021234E
:100CA00003630121FFF741FF002384F84030204611
:100CB000FFF7E0FFEFE7282380F8413022230363AA
:100CC0000221FFF732FF002384F840302046FFF76F
:100CD000D2FFE0E77047F8B590F8413003F0280301
:100CE000282B06D003680822DA61002380F8403000
:100CF000F8BD044603689E69C6F300469A69120C63
:100D000002F0FE059A68C2F30902DF6807F0FE07E9
:100D1000C168022921D185EAD21515F0060F10D13C
:100D2000816C01318164816C0229E1D100218164EF
:100D30000820D86184F8401031462046FFF7CAFFEA
:100D4000D6E70421FFF7F1FE002384F840303A464D
:100D500031462046FFF7BEFFCAE70421FFF7E5FE54
:100D6000002384F840302A4631462046FFF7B2FF80
:100D7000BEE7704710B50446164BC36200230363F9
:100D8000202280F8412080F84230436311F0040FA4
:100D900011D003685A6A436A591C41621A70038D64
:100DA0004BB1013B0385438D013B9BB24385436CB3
:100DB00043F00403436407212046FFF7B6FE23688F
:100DC0001022DA61002384F840302046FFF7D1FF7B
:100DD00010BD00BF0000FFFF7047000010B50446C3
:100DE000002380F842303A4AC2624385436C19437B
:100DF000416490F84130DBB2282B09D090F84130A3
:100E0000DBB2292B04D090F84130DBB22A2B1FD162
:100E100003212046FFF789FE282384F84130002370
:100E200023632C4B636323681A6812F4804F1ED12E
:100E30001A6812F4004F2DD194F84130DBB2602BC8
:100E40003BD0002384F8403020460BF0E1FF10BD7A
:100E50000721FFF76AFE94F84130DBB2602B02D025
:100E6000202384F84130002323636363DBE71A689F
:100E700022F480421A60A36B174A1A65002384F893
:100E80004030A06BFFF7D8FC0028E0D0A06B036DCA
:100E90009847DCE71A6822F400421A60E36B0E4AB6
:100EA0001A65002384F84030E06BFFF7C5FC00288A
:100EB000CDD0E06B036D9847C9E7202384F841301B
:100EC000002384F840302046FFF786FFBFE700BFCD
:100ED0000000FFFF29100008DF11000838B50446A4
:100EE0000D4603682022DA6103680822DA610721CF
:100EF000FFF71BFE2268536843F4004353602268E7
:100F0000536823F0FF7323F48B3323F4FF7323F030
:100F1000010353602046FFF7F7FD2268136813F4BE
:100F2000804F03D1136813F4004F0CD03C4B9A420E
:100F30003ED094F84130DBB2212B48D0E36B1B68E4
:100F40005B689BB26385638D9BB21BB1636C43F09E
:100F50000403636415F0040F10D0526A636A591CCD
:100F600061621A70238D4BB1013B2385638D013B78
:100F70009BB26385636C43F00403636400232363C3
:100F800084F842306363636C33BBE36A13F5803FDC
:100F900030D194F84130DBB2222B37D0202384F8B3
:100FA0004130002384F840302046FFF763FE2CE0F8
:100FB00094F84130DBB2212B04D0E36B1B685B68F3
:100FC0009BB2BFE7A36B1B685B689BB2BAE7A36BDE
:100FD0001B685B689BB2B5E7616C2046FFF7FEFEBD
:100FE00094F84130DBB2282B0FD129462046FFF779
:100FF000C1FE0AE00B4BE362202384F8413000235A
:1010000084F840302046FFF7B4FE38BD202384F832
:101010004130002384F840302046FFF72CFEF4E7EF
:10102000001C00580000FFFF90F84030012B00F03A
:101030009E8070B516460D460446012380F8403068
:1010400011F0100F3FD012F0100F3CD0438D9BB227
:1010500043BBC36AB3F1007F03D0C36AB3F1007F1F
:1010600004D194F84130DBB2282B0CD0E36A13F59D
:10107000803F04D094F84130DBB2292B08D023689C
:101080001022DA6115E029462046FFF773FE10E0D2
:1010900023681022DA612046FFF736FD2046FFF76D
:1010A000EBFD06E003681022DA61436C43F00403B1
:1010B000436415F0200F02D016F0200F52D100200B
:1010C00084F8400070BD15F0040F1ED016F0040F18
:1010D0001BD0638D9BB263B123685A6A636A591C43
:1010E00061621A70238D013B2385638D013B9BB2A6
:1010F0006385638D9BB2002BDBD1E36A13F5803FE0
:10110000D7D02046FFF7B8FDD3E715F0080F02D07F
:1011100016F0080F16D115F0020FCAD016F0020F04
:10112000C7D0638D9BB293B1636A5A1C6262226816
:101130001B789362638D013B9BB26385238D013BDA
:101140002385B6E729462046FFF7C5FDB1E7E36AE8
:10115000B3F1807F02D0E36A002BAAD12046FFF7CB
:101160008BFDA6E729462046FFF7B8FEA7E7022039
:10117000704710B502689369116813F4807F09D035
:1011800011F0800F06D0446C44F0010444644FF425
:101190008074D46113F4806F0AD011F0800F07D0EF
:1011A000426C42F00802426402684FF48064D461E9
:1011B00013F4007F0AD011F0800F07D0436C43F086
:1011C0000203436403684FF40072DA61436C13F066
:1011D0000B0F00D110BD416CFFF700FEFAE708B518
:1011E000806B0268536843F400435360826B0023B2
:1011F0001365C26B136590F84130DBB2602B02D0EF
:101200000BF006FE08BD202380F84130FFF7E4FD17
:10121000F8E790F84130DBB2202B24D190F8403031
:10122000012B22D0012380F84030242380F8413064
:101230000268136823F0010313600268136823F443
:1012400080531360026813681943116002681368C1
:1012500043F001031360202380F84130002380F81D
:10126000403018467047022070470220704790F8BF
:101270004130DBB2202B22D190F84030012B20D01E
:10128000012380F84030242380F84130026813683D
:1012900023F0010313600268136823F4706343EAC8
:1012A000012111600268136843F0010313602023D9
:1012B00080F84130002380F8403018467047022003
:1012C000704702207047000038B50446036813F0E9
:1012D000010F2AD0AC4B1B6903F03803102B1BD035
:1012E000A94B1B6903F03803182B0FD06368B3F5C3
:1012F000803F44D0002B58D1A34B1A6822F480328F
:101300001A601A6822F480221A603DE09E4B9B6AA4
:1013100003F00303022BE9D19B4B1B6813F4003F3E
:1013200003D06368002B00F08382236813F0020F60
:1013300000F09480944B1B6913F0380F60D0924BEF
:101340001B6903F03803182B55D0E368002B00F01D
:10135000BD808D490A6822F0190213430B60FFF724
:10136000B3F90546884B1B6813F0040F40F09E80CC
:10137000FFF7AAF9401B0228F4D903205DE2824A54
:10138000136843F48033136063682BB3FFF79CF951
:1013900005467D4B1B6813F4003FC6D1FFF794F957
:1013A000401B6428F5D9032047E2B3F5A02F09D0EC
:1013B000754B1A6822F480321A601A6822F480226F
:1013C0001A60E1E7704B1A6842F480221A601A68CA
:1013D00042F480321A60D7E7FFF776F905466A4B88
:1013E0001B6813F4003FA0D0FFF76EF9401B642880
:1013F000F5D9032021E2644B9B6A13F0030FA4D1BB
:10140000614B1B6813F0040F03D0E368002B00F05E
:1014100011825D4A136823F01903E1680B431360DE
:10142000FFF752F90546584B1B6813F0040F06D11D
:10143000FFF74AF9401B0228F5D90320FDE1524885
:10144000436823F47C3321694FF47C3292FAA2F290
:10145000B2FA82F201FA02F213434360236813F0F6
:10146000100F66D0484B1B6903F03803082B47D098
:10147000454B1B6903F03803182B3BD0E369002B65
:1014800000F08480404A136843F080031360FFF744
:101490001BF905463C4B1B6813F4807F64D1FFF7B2
:1014A00013F9401B0228F5D90320C6E136484368EA
:1014B00023F47C3321694FF47C3292FAA2F2B2FA1F
:1014C00082F201FA02F213434360C7E72E4A13681F
:1014D00023F001031360FFF7F7F805462A4B1B685A
:1014E00013F0040FBAD0FFF7EFF8401B0228F5D92C
:1014F0000320A2E1244B9B6A03F00303012BBDD11F
:10150000214B1B6813F4807F04D0E369802B01D04A
:10151000012092E11C48436823F0F843216A4FF010
:10152000F84292FAA2F2B2FA82F201FA02F21343FC
:101530004360236813F0080F50D06369002B39D043
:10154000114A536F43F001035367FFF7BDF8054697
:101550000D4B5B6F13F0020F40D1FFF7B5F8401B46
:101560000228F5D9032068E10748436823F0F843CF
:10157000216A4FF0F84292FAA2F2B2FA82F201FA2C
:1015800002F213434360D4E700440258AC4A1368A4
:1015900023F080031360FFF797F80546A84B1B68FC
:1015A00013F4807FC5D0FFF78FF8401B0228F5D9D0
:1015B000032042E1A24A536F23F001035367FFF770
:1015C00083F805469E4B5B6F13F0020F06D0FFF7C2
:1015D0007BF8401B0228F5D903202EE1236813F085
:1015E000200F29D0A3699BB1954A136843F4805317
:1015F0001360FFF769F80546914B1B6813F4005F11
:101600001AD1FFF761F8401B0228F5D9032014E135
:101610008B4A136823F480531360FFF755F805468F
:10162000874B1B6813F4005F06D0FFF74DF8401B93
:101630000228F5D9032000E1236813F0040F21D11B
:10164000636A002B00F0F8807D4A126902F03802CC
:10165000182A00F0F380022B75D0794A136823F022
:1016600080731360FFF730F80446754B1B6813F066
:10167000007F00F0DB80FFF727F8001B0228F4D979
:101680000320DAE06F4A136843F480731360FFF7B6
:101690001BF805466B4B1B6813F4807F06D1FFF7E0
:1016A00013F8401B6428F5D90320C6E0A368012B7A
:1016B0000AD00BBB624B1A6F22F001021A671A6F35
:1016C00022F004021A6704E05D4A136F43F001033D
:1016D0001367A36833B3FEF7F7FF0546584B1B6F3C
:1016E00013F0020FACD1FEF7EFFF401B41F288333D
:1016F0009842F3D90320A0E0052B09D0504B1A6F74
:1017000022F001021A671A6F22F004021A67E0E75A
:101710004B4B1A6F42F004021A671A6F42F0010233
:101720001A67D6E7FEF7D0FF0546454B1B6F13F04F
:10173000020F85D0FEF7C8FF401B41F28833984264
:10174000F3D9032079E03E4A136823F080731360D5
:10175000FEF7BAFF05463A4B1B6813F0007F06D030
:10176000FEF7B2FF401B0228F5D9032065E0344B99
:10177000996A354A0A40A16AE06A41EA00110A43BF
:101780009A62226B013AC2F30802616B0139490285
:1017900089B20A43A16B0139090401F4FE010A432D
:1017A000E16B0139090601F0FE410A431A63596BE6
:1017B000264A0A40A06C4FF6F87191FAA1F1B1FAED
:1017C00081F100FA01F10A435A63DA6A22F00C024D
:1017D000216C0A43DA62DA6A22F00202616C0A437F
:1017E000DA62DA6A42F48032DA62DA6A42F40032A9
:1017F000DA62DA6A42F48022DA62DA6A42F00102DC
:10180000DA621A6842F080721A60FEF75DFF0446E1
:101810000B4B1B6813F0007F06D1FEF755FF001B32
:101820000228F5D9032008E0002006E0002004E0AB
:10183000012002E0012000E0002038BD0120FCE78B
:1018400000440258004802580CFCFFFF0700FFFF4D
:101850006D4B1B6903F03803102B00F0D180182B5F
:101860000FD00BB169487047674B1B6813F0200F0E
:1018700000F0C880644B1B68C3F3C1036448D840C0
:10188000704770B4604DAC6A04F00304AE6AC6F3EE
:101890000516EB6A03F001036D6BC5F3CC0503FB82
:1018A00005F307EE903AF8EE677A012C60D0F4B1B8
:1018B000022C00F08980554BB3FBF6F307EE103A8B
:1018C000B8EE477A504B1B6BC3F30803DFED516A48
:1018D00067EEA67A06EE903AF8EE666A76EEA77A9A
:1018E000F7EE006A77EEA67A27EE277A5BE0464BA2
:1018F0001B6813F0200F1FD0434A1368C3F3C103C2
:101900004348D840B0FBF6F307EE103AB8EE477AFA
:10191000136BC3F30803DFED3F6A67EEA67A06EEAA
:10192000903AF8EE666A76EEA77AF7EE006A77EEFE
:10193000A67A27EE277A36E03548B0FBF6F307EEB5
:10194000103AB8EE477A304B1B6BC3F30803DFED58
:10195000316A67EEA67A06EE903AF8EE666A76EE9F
:10196000A77AF7EE006A77EEA67A27EE277A1AE0D2
:101970002649B1FBF6F307EE103AB8EE477A224B50
:101980001B6BC3F30803DFED236A67EEA67A06EE4E
:10199000903AF8EE666A76EEA77AF7EE006A77EE8E
:1019A000A67A27EE277A184B1B6BC3F34623013325
:1019B00007EE903AF8EE676AC7EE267AFCEEE77A11
:1019C00017EE900A70BC7047134AB2FBF6F307EEAD
:1019D000103AB8EE477A0C4B1B6BC3F30803DFEDEC
:1019E0000D6A67EEA67A06EE903AF8EE666A76EE33
:1019F000A77AF7EE006A77EEA67A27EE277AD2E783
:101A000005487047024870470044025800093D00ED
:101A10000090D003000000390024F400774B1B68CD
:101A200003F007038B420CD2744A136823F00703B8
:101A30000B431360136803F007038B4201D00120AE
:101A4000704770B5036813F0020F06D06C4A9369B3
:101A500023F00F03C468234393610D4604460368D3
:101A600013F0010F72D0664A936923F470638168A2
:101A70000B4393614368022B0AD0032B2BD0012B1D
:101A800030D05F4A126812F0040F06D10120B2E094
:101A9000126812F4003F00F0AF8059490A6922F041
:101AA000070213430B61FEF70FFE06466368022B25
:101AB0001FD0032B2CD0012B39D0514B1B6913F0B5
:101AC000380F43D0FEF700FE801B41F28833984266
:101AD000F3D903208FE04A4A126812F0007FDCD16C
:101AE000012088E0464A126812F4807FD5D1012097
:101AF00081E0434B1B6903F03803102B26D0FEF71F
:101B0000E3FD801B41F288339842F2D9032072E052
:101B10003B4B1B6903F03803182B17D0FEF7D4FD9D
:101B2000801B41F288339842F2D9032063E0344BA2
:101B30001B6903F03803082B08D0FEF7C5FD801B96
:101B400041F288339842F2D9032054E02B4B1B68B2
:101B500003F00703AB420CD9284A136823F00703AC
:101B60002B431360136803F00703AB4201D001203D
:101B700041E0236813F0040F06D0214A936923F053
:101B8000700321690B439361236813F0080F06D09B
:101B90001B4AD36923F0700361690B43D361236847
:101BA00013F0100F06D0164AD36923F4E063A1693D
:101BB0000B43D361236813F0200F06D0104A136A39
:101BC00023F07003E1690B431362FFF741FE0C4BF6
:101BD0009B6903F470634FF4807292FAA2F2B2FA36
:101BE00082F2D340074AD35CD840074B18600020EC
:101BF00008F070F9002070BD0120FCE700200052C1
:101C00000044025830DA00081C01002008B500F03A
:101C1000CBFF084B9B6903F00F03012292FAA2F25B
:101C2000B2FA82F2D340044AD35CD840034B186026
:101C300008BD00BF0044025830DA0008200100202F
:101C400008B5FFF7E3FF074BDB6903F070031022D1
:101C500092FAA2F2B2FA82F2D340034AD35CD8409D
:101C600008BD00BF0044025830DA000808B5FFF78D
:101C7000CDFF074BDB6903F4E0634FF4807292FA07
:101C8000A2F2B2FA82F2D340024AD35CD84008BD35
:101C90000044025830DA00083F230360114B1A69F0
:101CA00002F0070242609A6902F4706282609A69E7
:101CB00002F00F02C2609A6902F070020261DA69F2
:101CC00002F070024261DA6902F4E06282611B6A2A
:101CD00003F07003C361044B1B6803F007030B6040
:101CE000704700BF0044025800200052384B9B6AE6
:101CF00003F00303032B69D070B50E460446344A43
:101D0000136823F080631360FEF7DEFC0546304B5A
:101D10001B6813F0006F06D0FEF7D6FC401B0228AC
:101D2000F5D9032070BD2A4A936A23F47C332168D5
:101D300043EA013393626368013BC3F30803A1687C
:101D40000139490289B20B43E1680139090401F400
:101D5000FE010B4321690139090601F0FE410B43E5
:101D60009363D36A23F0C00361690B43D362D36AE0
:101D700023F02003A1690B43D362BEB9D36A43F4B5
:101D80000023D362124A136843F080631360FEF7A6
:101D90009BFC04460E4B1B6813F0006F14D1FEF73A
:101DA00093FC001B0228F5D90320BBE7012E05D0C8
:101DB000074AD36A43F40013D362E3E7044AD36AC1
:101DC00043F48013D362DDE70020ABE701207047C6
:101DD00000440258384B9B6A03F00303032B69D07D
:101DE00070B50E460446344A136823F080531360DE
:101DF000FEF76AFC0546304B1B6813F0005F06D007
:101E0000FEF762FC401B0228F5D9032070BD2A4A68
:101E1000936A23F07C73216843EA015393626368F9
:101E2000013BC3F30803A1680139490289B20B439E
:101E3000E1680139090401F4FE010B43216901390C
:101E4000090601F0FE410B431364D36A23F4406397
:101E500061690B43D362D36A23F40073A1690B4316
:101E6000D362BEB9D36A43F48003D362124A1368C3
:101E700043F080531360FEF727FC04460E4B1B68AB
:101E800013F0005F14D1FEF71FFC001B0228F5D9E8
:101E90000320BBE7012E05D0074AD36A43F08073C5
:101EA000D362E3E7044AD36A43F40003D362DDE775
:101EB0000020ABE70120704700440258F8B5044603
:101EC000036813F0006F2BD0436EB3F5801F18D05A
:101ED00007D9B3F5001F1DD0B3F5401F2ED1002642
:101EE00006E05BBBA14AD36A43F40033D362002609
:101EF0009E4A136D23F44013616E0B431365002556
:101F000010E002210430FFF7F1FE0646002EEFD06C
:101F1000354607E002212430FFF75CFF0646F5E76F
:101F200000252E46236813F4807F28D0636D042B90
:101F300022D8DFE803F006141A0B0B0001252E4609
:101F4000F0E78A4AD36A43F40033D362AEB9874AD2
:101F5000136D23F00703616D0B4313650FE0002140
:101F6000201DFFF7C3FE0646F0E7002104F1240020
:101F7000FFF730FF0646E9E701263543EDB2236857
:101F800013F4007F14D0A36D802B35D008D823B371
:101F9000402B0AD10021201DFFF7A8FE064621E0B4
:101FA000C02B1FD0B3F5807F1CD001263543EDB286
:101FB000236813F4806F2FD0D4F8A430B3F5800FCA
:101FC0004FD020D8002B3CD0B3F5001F21D10021E9
:101FD000201DFFF78BFE064638E0644AD36A43F4BF
:101FE0000033D362002EE1D1604A136D23F4E07315
:101FF000A16D0B431365DBE7002104F12400FFF71B
:10200000E9FE0646EEE7B3F5C00F1FD0B3F5000FAB
:102010001CD001263543EDB2236813F4006F30D095
:10202000D4F8A830B3F1007F48D021D8002B35D0A8
:10203000B3F1807F22D10021201DFFF757FE064615
:1020400031E04A4AD36A43F40033D362002EE1D12F
:10205000464A936D23F46003D4F8A4100B439365B0
:10206000DAE7002104F12400FFF7B4FE0646EDE7AD
:10207000B3F1407F17D0B3F1806F14D00126354300
:10208000EDB2236813F0007F23D0A36C102B34D063
:102090001BD9202B40D0302B34D017E0334AD36AE1
:1020A00043F40033D362002EE9D1304A936D23F01C
:1020B000E063D4F8A8100B439365E2E7002104F134
:1020C0002400FFF787FE0646EDE7DBB10126354326
:1020D000EDB2236813F4805F2DD0E36DB3F5005F9C
:1020E00055D01FD8002B43D0B3F5805F20D10021FD
:1020F000201DFFF7FBFD06463FE01C4AD36A43F470
:102100000033D362002EE2D1184AD36C23F030039F
:10211000A16C0B43D364DCE70221201DFFF7E6FD31
:102120000646EFE7B3F5405F27D0B3F5804F24D0E4
:1021300001263543EDB2236813F4005F3AD0236ED5
:10214000B3F5003F53D029D83BB1B3F5803F2ED132
:102150000121201DFFF7CAFD06464EBB034A136D41
:1021600023F4E023216E0B43136523E0004402585F
:10217000944AD36A43F40033D362002ED9D1914AF2
:10218000136D23F4E043E16D0B431365D3E70021A6
:1021900004F12400FFF71EFE0646EEE7B3F5802F9C
:1021A000DBD0B3F5A02FD8D0B3F5403FD5D0012672
:1021B0003543EDB2236813F4804F2BD0D4F8AC3004
:1021C000B3F1005F40D019D83BB1B3F1805F1ED1AD
:1021D0000121201DFFF78AFD0646CEB9794A936D8D
:1021E00023F0E043D4F8AC100B43936512E00121D7
:1021F00004F12400FFF7EEFD0646AEE7B3F1804F91
:10220000EBD0B3F1A04FE8D0B3F1405FE5D00126A9
:102210003543EDB2236813F4004F0AD0E36EB3F1F7
:10222000805F18D0B3F1005F24D0CBB101263543D5
:10223000EDB2236813F0807F39D0636C032B33D861
:10224000DFE803F0231E2C23012104F12400FFF713
:10225000C1FD0646C1E75B4AD36A43F40033D3624B
:10226000002EE4D1574A136D23F04053E16E0B4327
:102270001365DEE70121201DFFF738FD0646EFE775
:10228000504AD36A43F40033D36276B94D4AD36CD3
:1022900023F00303616C0B43D36408E00221201D8B
:1022A000FFF724FD0646F0E701263543EDB223682B
:1022B00013F4800F1FD1236813F0010F00F0A080EA
:1022C000A36F282B00F29980DFE803F08797979798
:1022D00097979797829797979797979790979797AA
:1022E000979797978797979797979797879797979E
:1022F000979797978700344A136843F48073136065
:10230000FEF7E2F90746304B1B6813F4807F05D1D6
:10231000FEF7DAF9C01B6428F5D90326002E4DD14B
:10232000284B1B6FD4F8B020534013F4407F0CD0DF
:10233000244B1A6F22F44072196F41F480311967EF
:10234000196F21F4803119671A67D4F8B030B3F5EA
:10235000807F15D07EBBD4F8B03003F44072B2F564
:10236000407F1ED0174A136923F47C53136115492B
:102370000B6FD4F8B020C2F30B0213430B679AE73C
:10238000FEF7A2F907460F4B1B6F13F0020FE1D1C6
:10239000FEF79AF9C01B41F288339842F3D903261D
:1023A000D8E70848026922F47C52084901EA13136D
:1023B00013430361DBE73543EDB27CE73543EDB210
:1023C00079E700BF0044025800480258CFFFFF00E1
:1023D0000121201DFFF78AFC06467EB9AC4A536DE9
:1023E00023F03803A16F0B43536509E0012104F189
:1023F0002400FFF7EFFC0646EFE701263543EDB278
:10240000236813F0020F1FD0636F052B19D8DFE884
:1024100003F00803110808080121201DFFF766FCDE
:1024200006467EB99A4A536D23F00703616F0B434A
:10243000536509E0012104F12400FFF7CBFC0646B7
:10244000EFE701263543EDB2236813F0040F21D0E6
:10245000D4F89030052B1AD8DFE803F008031208EF
:1024600008080121201DFFF741FC064686B9884A6D
:10247000936D23F00703D4F890100B43936509E0A4
:10248000012104F12400FFF7A5FC0646EEE7012632
:102490003543EDB2236813F0200F24D0D4F88C30EC
:1024A000B3F1005F3CD012D83BB1B3F1805F17D1DC
:1024B0000021201DFFF71AFC064696B9744A536D99
:1024C00023F0E043D4F88C100B4353650BE0B3F1D9
:1024D000804FF2D0B3F1A04FEFD0B3F1405FECD01A
:1024E00001263543EDB2236813F0400F2BD0D4F80A
:1024F0009830B3F5006F44D019D83BB1B3F5806F75
:102500001ED10021201DFFF7F1FB0646CEB9604A1F
:10251000936D23F4E053D4F898100B43936512E0C5
:10252000022104F12400FFF755FC0646C5E7B3F588
:10253000805FEBD0B3F5A05FE8D0B3F5406FE5D096
:1025400001263543EDB2236813F0800F2CD0D4F868
:102550009C30B3F5804F00F08B8019D83BB1B3F5B8
:10256000005F1ED10021201DFFF7C0FB0646CEB93B
:10257000474A936D23F46043D4F89C100B43936552
:1025800012E0022104F12400FFF724FC0646BDE717
:10259000B3F5004FEBD0B3F5204FE8D0B3F5C04F03
:1025A000E5D001263543EDB2236813F0080F0AD0B9
:1025B000D4F88030B3F5805F61D035494A6D22F49C
:1025C000405213434B65236813F0100F0AD0D4F820
:1025D0009430B3F5807F5DD02D498A6D22F440722E
:1025E00013438B65236813F4002F0CD0D4F8A0306C
:1025F000B3F5803F66D0B3F5003F58D0002B51D0E3
:1026000001263543EDB2236813F4802F0DD0D4F8A2
:102610008430B3F5001F6CD0B3F5401F5ED0B3F526
:10262000801F56D001263543EDB2236813F4803F56
:1026300008D0E36C002B63D0B3F5803F6FD0012648
:102640003543EDB2236813F0005F6ED1236813F4B5
:10265000003F77D0E36FB3F5807F00F0AA806CD99C
:10266000B3F5007F00F0AA80B3F5407F67D1A5E005
:10267000022104F12400FFF7ADFB064677E70221B3
:1026800004F12400FFF7A6FB0543EDB29BE700BF72
:1026900000440258022104F12400FFF79BFB05438C
:1026A000EDB29FE70021201DFFF720FB0646002E1C
:1026B000A7D14B4A936D23F44033D4F8A0100B43B9
:1026C0009365A0E7022104F12400FFF783FB06468F
:1026D000EDE7434AD36A43F40033D362002EA2D11C
:1026E0003F4A536D23F44013D4F884100B435365D1
:1026F0009BE7012104F12400FFF76CFB0646EDE7A0
:10270000374AD36A43F40033D362002E98D1344A57
:10271000D36C23F48033E16C0B43D36492E7022142
:10272000201DFFF7E3FA0646EFE7022104F124003B
:10273000FFF750FB0543EDB288E7002B3ED00126A2
:102740003543EDB2236813F4801F06D0244A136D7D
:1027500023F00043216F0B431365236813F0805F60
:1027600007D01F4A136923F48043D4F8B4100B43F5
:102770001361236813F4001F06D0194A136D23F068
:102780008073A16E0B431365236813F0804F09D04B
:10279000134B1A6922F400421A611A69D4F8B8106E
:1027A0000A431A612368002B12DB05B10125284674
:1027B000F8BD0B4AD36A43F40033D362002EBFD175
:1027C000074A536D23F44073E16F0B435365B9E738
:1027D000034AD36C23F04053216D0B43D364E4E7E9
:1027E0000044025808B5FFF711FA074B1B6A03F0C3
:1027F0007003102292FAA2F2B2FA82F2D340034A94
:10280000D35CD84008BD00BF0044025830DA00084D
:10281000F0B46D4CA76A07F00307A16AC1F3053C49
:10282000E66A06F01006E36BC3F3CC0306FB03F67F
:1028300007EE906AB8EE677A012F60D0F7B1022FE9
:1028400000F0A580614BB3FBFCF307EE903AF8EE85
:10285000677A5D4B9B6BC3F30803DFED5D6A27EE80
:10286000267A06EE903AF8EE666A36EE877AF7EE4A
:10287000006A37EE267A67EE877A5BE0524B1B6878
:1028800013F0200F1FD0504A1368C3F3C103514DFA
:10289000DD40B5FBFCF307EE903AF8EE677A936BF8
:1028A000C3F30803DFED4A6A27EE267A06EE903A74
:1028B000F8EE666A36EE877AF7EE006A37EE267A29
:1028C00067EE877A36E0434CB4FBFCF307EE903AB0
:1028D000F8EE677A3C4B9B6BC3F30803DFED3C6A71
:1028E00027EE267A06EE903AF8EE666A36EE877A9A
:1028F000F7EE006A37EE267A67EE877A1AE03349F8
:10290000B1FBFCF307EE903AF8EE677A2E4B9B6B27
:10291000C3F30803DFED2E6A27EE267A06EE903A1F
:10292000F8EE666A36EE877AF7EE006A37EE267AB8
:1029300067EE877A244A936BC3F34623013307EE8D
:10294000103AB8EE477AC7EE876AFCEEE66AC0ED49
:10295000006A936BC3F30643013307EE103AB8EEF7
:10296000477AC7EE876AFCEEE66AC0ED016A936BB0
:10297000C3F30663013307EE103AB8EE477AC7EEA9
:10298000876AFCEEE66AC0ED026AF0BC7047124A44
:10299000B2FBFCF307EE903AF8EE677A0A4B9B6BBA
:1029A000C3F30803DFED0A6A27EE267A06EE903AB3
:1029B000F8EE666A36EE877AF7EE006A37EE267A28
:1029C00067EE877AB6E700BF0044025800093D0071
:1029D000000000390090D0030024F400F0B46D4CE6
:1029E000A76A07F00307A16AC1F3055CE66A06F46B
:1029F0008076636CC3F3CC0306FB03F607EE906AA4
:102A0000B8EE677A012F60D0F7B1022F00F0A580F1
:102A1000614BB3FBFCF307EE903AF8EE677A5D4B3F
:102A20001B6CC3F30803DFED5D6A27EE267A06EE22
:102A3000903AF8EE666A36EE877AF7EE006A37EE7D
:102A4000267A67EE877A5BE0524B1B6813F0200F03
:102A50001FD0504A1368C3F3C103514DDD40B5FB8D
:102A6000FCF307EE903AF8EE677A136CC3F30803B1
:102A7000DFED4A6A27EE267A06EE903AF8EE666AAD
:102A800036EE877AF7EE006A37EE267A67EE877AB7
:102A900036E0434CB4FBFCF307EE903AF8EE677A6D
:102AA0003C4B1B6CC3F30803DFED3C6A27EE267A30
:102AB00006EE903AF8EE666A36EE877AF7EE006A2E
:102AC00037EE267A67EE877A1AE03349B1FBFCF3DA
:102AD00007EE903AF8EE677A2E4B1B6CC3F30803AF
:102AE000DFED2E6A27EE267A06EE903AF8EE666A59
:102AF00036EE877AF7EE006A37EE267A67EE877A47
:102B0000244A136CC3F34623013307EE103AB8EEA0
:102B1000477AC7EE876AFCEEE66AC0ED006A136C7E
:102B2000C3F30643013307EE103AB8EE477AC7EE17
:102B3000876AFCEEE66AC0ED016A136CC3F30663B4
:102B4000013307EE103AB8EE477AC7EE876AFCEE1B
:102B5000E66AC0ED026AF0BC7047124AB2FBFCF3B1
:102B600007EE903AF8EE677A0A4B1B6CC3F3080342
:102B7000DFED0A6A27EE267A06EE903AF8EE666AEC
:102B800036EE877AF7EE006A37EE267A67EE877AB6
:102B9000B6E700BF0044025800093D0000000039BC
:102BA0000090D0030024F40008B5FEF751FE084B56
:102BB0009B6903F470634FF4807292FAA2F2B2FA46
:102BC00082F2D340034AD35CD840034B186008BD5F
:102BD0000044025830DA00081C0100202DE9F043BF
:102BE00097B004464022002168460AF070FAFDF7CB
:102BF0006BFDA36D002B76D08046B3F5807F04D0AB
:102C00000025284617B0BDE8F08323680022DA6269
:102C10004021206802F036FB05460028F1D14FF034
:102C2000FF331093402311936023129302231393D5
:102C3000002314930123159310A9206802F010FBC0
:102C4000002853D12B49206802F0DCFC05460028FF
:102C5000D7D1814615E006EBC907206802F0D4F908
:102C600016AB03EB870747F8580C0136072EF2D94D
:102C700009F10109FDF728FDA0EB0800B0F1FF3FC5
:102C80000BD02368596B40F22A5211420CD15B6B76
:102C900013F4004FEED02E46E8E74FF00045656391
:102CA000012384F83030ACE75A6B12F0080F11D1D1
:102CB0005A6B12F0020F10D15A6B12F0200F0FD185
:102CC0000D4A9A639DF80D3013F0020F99D14FF021
:102CD000805596E708229A6393E702259D6390E763
:102CE00020259D638DE74FF080658AE74FF480359E
:102CF00087E700BF01FFFF80FF0FE01F70B50646AA
:102D0000446A00250DE0306802F07EF92070C0F3BF
:102D100007236370C0F30743A370000EE070043410
:102D20000135072DEFD9746270BD000070B582B017
:102D3000044600230193006802F061FB064610B1CF
:102D4000304602B070BD206802F06CFB48B1002331
:102D5000E3630021206802F07DFB064658BB054670
:102D600005E00123E363F4E7019B01330193019A3A
:102D70004FF6FE739A4213D895B90021206802F0ED
:102D800069FBD8B91149206802F07DFB0546B8B946
:102D90000021206802F063F9C30FE5D01D46E3E788
:102DA000019A4FF6FE739A420DD810F0804FC7D0AB
:102DB0000123A363C4E74FF08056C1E70646BFE78F
:102DC0004FF08056BCE74FF08076B9E7000010C1A5
:102DD00070B582B00646C469002514E023780193DB
:102DE000627843EA02230193A27843EA0243019303
:102DF000E27843EA026302A941F8043D04343068F2
:102E000002F005F90135072DE8D9F46102B070BD73
:102E10002DE9F04186B004460D46FDF755FC80468D
:102E20000021206802F01BF910F0007F67D14021DB
:102E3000206802F027FA064610B1636B636360E016
:102E4000616C0904206802F005FB064610B1636B53
:102E5000636356E04FF0FF330093402301936023F8
:102E600002930223039300230493012305936946ED
:102E7000206802F0F5F9206802F0ABFB064688B145
:102E8000636B63633DE0206802F0BEF845F8040B15
:102E90000137072FF7D9FDF717FCA0EB0800B0F1B9
:102EA000FF3F32D023685A6B12F4957F05D15B6BDC
:102EB00013F4004FEFD03746EBE75A6B12F0080FD0
:102EC00026D15A6B12F0020F24D15B6B13F0200F46
:102ED00022D12068436B13F4005F0DD002F094F808
:102EE00045F8040BFDF7F0FBA0EB0800B0F1FF3F45
:102EF000EFD14FF0004604E0084B836301E04FF44C
:102F00000066304606B0BDE8F0814FF00046F8E7B5
:102F10000826F6E70226F4E72026F2E73A0F001823
:102F20002DE9F04188B004460F46FDF7CDFB06467B
:102F30000023009301930821206802F0A3F90546BD
:102F400018B1284608B0BDE8F081616C090420681A
:102F500002F080FA05460028F3D14FF0FF330293C8
:102F6000082303933023049302230593002306933D
:102F70000123079302A9206802F072F9206802F089
:102F8000B1FA05460028DCD1804605E0FDF79CFB40
:102F9000801BB0F1FF3F48D02068426B40F22A53BB
:102FA0001A4210D1436B13F4002FEFD1B8F1000F88
:102FB000ECD102F029F80090206802F025F8019089
:102FC00008F10108E2E7436B13F0080F24D1436BCB
:102FD00013F0020F23D1436B13F0200F22D1144BB7
:102FE0008363019A130203F47F0343EA0263110A25
:102FF00001F47F410B4343EA12633B60009A1302E2
:1030000003F47F0343EA0263110A01F47F410B4397
:1030100043EA12637B6094E70825856391E7022504
:1030200085638EE7202585638BE74FF0004588E7B1
:103030003A0F001810B582B00446002100910191AA
:10304000006802F00CF810F0007F16D169462046A7
:10305000FFF766FF034690B9019B13F4802F11D050
:10306000616C0904206802F0F5F9034638B90221C1
:10307000206802F01EFA034601E04FF40063184690
:1030800002B010BD4FF08063F9E710B582B004467E
:10309000002100910191006801F0E1FF10F0007F34
:1030A00016D169462046FFF73BFF034690B9019BC6
:1030B00013F4803F11D0616C0904206802F0CAF952
:1030C000034638B90021206802F0F3F9034601E015
:1030D0004FF40063184602B010BD4FF08063F9E76B
:1030E00070B581B10D460446416C0904006802F0D8
:1030F00057FA064608B1304670BD0021206801F03D
:10310000AEFF2860F7E74FF00066F4E72DE9F041E5
:1031100086B0044669B315461E460F4690F8303017
:10312000DBB2012B6FD1002343639319026D9342ED
:1031300025D8032380F8303003680022DA62616208
:103140004FEA4628C0F82880836B012B00D06D021F
:103150004FF40071206802F095F80346A8B1226888
:103160002C499163606B18436063012084F8300040
:103170004AE0436B43F000634363012044E0436B48
:1031800043F00073436301203EE04FF0FF330093B0
:10319000CDF8048090230293022303930023049329
:1031A00005936946206802F05BF82268D36B43F40C
:1031B0009573D3632268D36843F04003D3602368D8
:1031C00001221A6523689F65964215D98223E3621E
:1031D0002946206802F088F8C8B123680D4A9A632E
:1031E0002268D36B23F49573D363636B18436063D6
:1031F000012084F8300007E08123E362294620683B
:1032000002F059F8E8E7022006B0BDE8F08100209E
:10321000FAE700BFFF0FE01F2DE9F04186B004463A
:1032200069B315461E460F4690F83030DBB2012BCD
:103230006ED1002343639319026D934225D8032373
:1032400080F8303003680022DA62E1614FEA4628F4
:10325000C0F82080836B012B00D06D024FF4007109
:10326000206802F00FF80346A8B122682B49916349
:10327000606B18436063012084F8300049E0436BC1
:1032800043F000634363012043E0436B43F000736A
:10329000436301203DE04FF0FF330093CDF80480FD
:1032A00090230293002303930493059369462068B7
:1032B00001F0D6FF2268D36B43F48D73D363226889
:1032C000D36843F04003D360236801221A65236862
:1032D0009F65964215D9A023E3622946206802F033
:1032E00035F8C8B123680D4A9A632268D36B23F47A
:1032F0008D73D363636B18436063012084F83000DF
:1033000007E09023E3622946206802F006F8E8E728
:10331000022006B0BDE8F0810020FAE7FF0FE01FB1
:103320007047000010B4C36D9B0F0B70C36DC3F3E7
:1033300083634B7090F85F3003F003038B7090F859
:103340005E30CB7090F85D300B7190F85C304B7153
:10335000036E1B0DCB80B0F8623003F00F030B72CD
:10336000036EC3F3C0334B72036EC3F380338B72AF
:10337000036EC3F34033CB72036EC3F300330B739E
:1033800000234B73836B002B40F08880026E40F665
:10339000FC7303EA8203426E43EA92730B61436E4D
:1033A000C3F3C2630B7590F8673003F007034B75E6
:1033B000436EC3F342538B75436EC3F38243CB75A5
:1033C000436EC3F3C2330B760B69013383640A7E09
:1033D00002F00702023203FA02F282640B7A03F06F
:1033E0000F040123A340C3645B0A03FB02F30365DC
:1033F0004FF400734365436EC3F380334B76436EE3
:10340000C3F3C6138B76436E03F07F03CB76836ED4
:10341000DB0F0B77836EC3F341734B77836EC3F37C
:1034200082638B77836EC3F38353CB77836EC3F34F
:10343000405381F82030002381F82130B0F86A2011
:1034400002F0010281F82220826EC2F3C03281F8BC
:103450002320826EC2F3803281F82420826EC2F370
:10346000403281F82520826EC2F3003281F8262096
:10347000826EC2F3812281F82720826EC2F301227C
:1034800081F82820826EC2F3460281F829200122A9
:1034900081F82A2018465DF8044B7047012B0BD0A9
:1034A00003680E4A9A63436B43F0805343630123DE
:1034B00080F830301846EEE7036E1B0403F47C13EB
:1034C000B0F8662013430B610B6901339B028364E0
:1034D00003654FF40073C36443658CE7FF0FE01F7F
:1034E00010B58CB004460123ADF80230006801F03D
:1034F0009DFD00285CD0A36B032B36D1A36B032B5F
:103500004DD1A36B032B1DD0BDF8021061640904DB
:10351000206802F016F8034600284BD100212068ED
:1035200001F09DFDE0650421206801F098FD206612
:103530000821206801F093FD60660C21206801F0ED
:103540008EFDA0660421206801F089FD000D206435
:1035500001A92046FFF7E6FE78BB626C1204002347
:10356000206801F033FF034624E0206801F0D3FF18
:103570000346F8B90021206801F071FDE0660421DE
:10358000206801F06CFD20670821206801F067FDCC
:1035900060670C21206801F062FDA067AEE70DF1C5
:1035A0000201206801F0E3FF03460028A9D001E0F2
:1035B0004FF0806318460CB010BD4FF08053F9E710
:1035C00030B589B004460023039304930593069312
:1035D000FA23079308AB13E903008DE8030003AB5C
:1035E0000ECB206801F0F6FC18B10125284609B081
:1035F00030BD206801F010FD054608B10125F5E752
:103600002046FFF793FB034630B1012584F8305084
:10361000606B18436063E9E72046FFF761FF00280D
:10362000E4D0012584F83050636B03436363DDE726
:1036300030B591B005460C466946FFF7E9FB002816
:103640003CD1009AC2F381132370C2F3401363701C
:10365000130A23F0FF0343EA12639BB26380019ACB
:10366000130203F47F0343EA0263110A01F47F416A
:103670000B4343EA12636360029BDAB22272C3F324
:1036800007226272C3F30352A2721B0C039AD1B2D7
:1036900023F0FF030B43A381C2F38523A373C2F37B
:1036A0000123E373C2F30313237402F00F02627465
:1036B0009DF81330A374002011B030BD03462A6872
:1036C00004499163686B18436863012085F83000F2
:1036D000F2E700BFFF0FE01F836B0B60C36B4B6013
:1036E000036C8B60436CCB60836C0B61C36C4B6170
:1036F000036D8B61436DCB610020704730B589B09D
:1037000004460D46032380F83030836B032B1CD016
:10371000B1F5004F08D0B1F5804F0AD079B1436BB5
:1037200043F00063436314E0436B43F0805343630F
:103730000FE0FFF77FFC636B1843606309E0FFF75E
:10374000A4FC636B1843606303E0436B43F0805356
:103750004363636BD3B963680393A36804930595CC
:10376000236906936369032B17D9079308AB13E901
:1037700003008DE8030003AB0ECB206801F02AFCA8
:10378000012384F83030002009B030BD23680A4A94
:103790009A63012084F83000F6E7A26DB2F5007F4D
:1037A00005D0B2F5807F04D004230793DEE70793AA
:1037B000DCE702230793D9E7FF0FE01F10B582B0C3
:1037C000044602A9002341F8043DFFF789FC18B123
:1037D0000346606B184360630198C0F3432002B056
:1037E00010BD70B586B0002864D0044690F8303023
:1037F00053B1032384F830302046FFF7E1FE38B19F
:103800000125284606B070BD037606F0E3FAF0E71E
:1038100001A92046FFF70CFF00284DD19DF8143078
:10382000DAB29DF81530DBB2A16B01292AD001294B
:103830002ED00023A365E1682046FFF75FFF054611
:1038400000283BD1A36DB3F5807F18BFB3F5007F8F
:1038500022D0A36B012B1FD0FCF736FF0646204673
:10386000FFF7ACFF04281ED0FCF72EFF801BB0F141
:10387000FF3FF4D14FF000436363012384F83030FD
:103880000325BEE71343D2D04FF40073A365D2E7FC
:103890004FF48073A365CEE72046FFF79FF9002819
:1038A000DAD00125ADE700236363E362012384F8E6
:1038B0003030A6E70125A4E70125A2E70125A0E70E
:1038C000704770477047704738B50446C56A03684B
:1038D0005A6B12F4807F61D04FF480729A63026851
:1038E000D16B784B0B40D3630268D36B23F08053CA
:1038F000D3630268D36823F04003D36015F0080F48
:1039000020D015F0220F0CD123686F4A9A6301234F
:1039100084F8303015F0030F10D0204605F0B2FCCB
:10392000A6E0006801F02CFD03460028ECD0626B95
:10393000134363632046FFF7F3FCE5E7204605F0F9
:103940009DFC95E015F0800F00F092800268002346
:1039500093620268D3620268136515F0010F0CD000
:10396000012384F8303015F0300F13D115F0030F18
:103970007ED0204605F086FC7AE0006801F000FD6C
:1039800003460028ECD0626B134363632046FFF7C5
:10399000C7FCE5E7204605F071FCE7E75A6B12F437
:1039A000804F63D15A6B12F4004F62D15A6B12F000
:1039B0003A0F68D05A6B12F0020F03D0426B42F0FC
:1039C000020242635A6B12F0080F03D0626B42F09E
:1039D000080262635A6B12F0200F03D0626B42F050
:1039E000200262635A6B12F0100F03D0626B42F038
:1039F00010026263344A9A632268D36B23F49D7386
:103A0000D3632268D36823F04003D3602268D36A6B
:103A100043F40053D3622268D36843F08003D36039
:103A2000206801F0ADFC636B184360632268D368C3
:103A300023F08003D36023684FF400629A6315F08B
:103A4000080F19D115F0800F12D0636B83B1226873
:103A5000D36B23F08053D363236800221A650123BC
:103A600084F830302046FFF75BFC01E0FFF7B0F947
:103A700038BDFFF743F9FBE7012384F830302046D7
:103A8000FFF74EFCF4E75A6B12F0805FF0D01B6D2D
:103A900013F0040F0DD1C36A13F0200F06D0FFF707
:103AA00012FF23684FF080529A63E1E7FFF709FFA6
:103AB000F7E715F0200F02D0FFF704FFF1E7FFF75B
:103AC000FFFEEEE7C53EFFFF3A0F001810B4036A91
:103AD000046A24F001040462846924F0F00444EAD6
:103AE000021223F00A030B43826103625DF8044B68
:103AF000704710B4036A23F0100303628469036AF9
:103B000024F4704444EA023223F0A00343EA011390
:103B1000826103625DF8044B704700008268034BCA
:103B2000134041F007011943816070478FFFCFFFB9
:103B30000268D36843F00103D3600268138843F03E
:103B4000010313800020704770477047704770472B
:103B500010B5044603681A6912F0020F11D0DA6832
:103B600012F0020F0DD06FF002021A6101230377E9
:103B700003689B6913F0030F79D0FFF7E6FF00237A
:103B8000237723681A6912F0040F12D0DA6812F052
:103B9000040F0ED06FF004021A610223237723680A
:103BA0009B6913F4407F68D02046FFF7CEFF0023C7
:103BB000237723681A6912F0080F12D0DA6812F01E
:103BC000080F0ED06FF008021A61042323772368D0
:103BD000DB6913F0030F57D02046FFF7B6FF002331
:103BE000237723681A6912F0100F12D0DA6812F0E6
:103BF000100F0ED06FF010021A610823237723688C
:103C0000DB6913F4407F46D02046FFF79EFF002378
:103C1000237723681A6912F0010F03D0DA6812F0D3
:103C2000010F3FD123681A6912F0800F03D0DA68C0
:103C300012F0800F3DD123681A6912F4807F03D0FF
:103C4000DA6812F0800F3BD123681A6912F0400F36
:103C500003D0DA6812F0400F39D123681A6912F0E4
:103C6000200F03D0DA6812F0200F37D110BDFFF714
:103C70006BFF2046FFF76AFF81E72046FFF764FFEE
:103C80002046FFF763FF92E72046FFF75DFF2046DF
:103C9000FFF75CFFA3E72046FFF756FF2046FFF73C
:103CA00055FFB4E76FF001021A61204605F01EFED1
:103CB000B8E76FF080021A61204600F076F9BAE7A3
:103CC0006FF080021A61204600F06FF9BCE76FF0D8
:103CD00040021A612046FFF73AFFBEE76FF020026C
:103CE0001A61204600F060F9C0E7000070B4038854
:103CF0009BB2384CA04214BF00240124B0F1804F85
:103D000014BF224644F00102AAB9334DA84214BFA1
:103D100000250125314EB0420DD065B905F1804531
:103D200005F58235A84214BF0025012506F5006679
:103D3000B04200D01DB123F070034D682B4312BB7D
:103D4000254A904214BF00220122244DA8421AD0D5
:103D5000CAB902F1804202F58232904214BF0022B9
:103D6000012205F50065A8420DD062B91C4A9042B7
:103D700014BF0022012205F59A35A84203D012B9DA
:103D8000184A904203D123F44073CA68134323F0C6
:103D900080034A6913439BB203808A68C2620A881F
:103DA0000285114B984214BF234644F001035BB9CE
:103DB0000B4B984214BF002301230C4A904203D0BE
:103DC00013B9084B984201D10B8A03860123436142
:103DD00070BC704700000140000800400004004033
:103DE00000440140004801400004014000400140FF
:103DF000A8B110B5044690F83D305BB1022384F8B9
:103E00003D30211D2068FFF771FF012384F83D300C
:103E1000002010BD80F83C3006F088F9EEE7012064
:103E2000704710B4846824F47F4442EA03230B43B0
:103E3000234383605DF8044B7047000090F83C30EA
:103E4000012B7DD010B50446012380F83C300223BD
:103E500080F83D30026890683A4B034093600B68ED
:103E6000402B59D010D9702B3ED01FD8502B49D0A1
:103E7000602B32D1CA6849682068FFF73AFE60219A
:103E80002068FFF74BFE28E0102B4FD008D9202BDD
:103E900051D0302B21D130212068FFF73FFE1CE0AC
:103EA000DBB900212068FFF739FE16E0B3F5805F2B
:103EB0000ED0B3F5005F10D1CB684A6889682068DE
:103EC000FFF7AFFF2268936843F48043936004E0F8
:103ED000226891681C4B0B409360012384F83D30AD
:103EE000002084F83C0010BDCB684A6889682068CF
:103EF000FFF797FF22689168144B0B4043F077035C
:103F00009360EAE7CA6849682068FFF7DFFD50213F
:103F10002068FFF703FEE0E7CA6849682068FFF7FA
:103F2000D5FD40212068FFF7F9FDD6E71021206874
:103F3000FFF7F4FDD1E720212068FFF7EFFDCCE784
:103F4000022070478800CEFFF8FFFEFF88FFCEFFFB
:103F500090F83C30012B21D070B4012380F83C3024
:103F600003685A689D680E4E0E4CA34218BFB342B8
:103F700003D122F470024C68224322F070020C68D4
:103F8000224325F08004896821435A6003689960C0
:103F9000002380F83C30184670BC70470220704700
:103FA0000000014000040140704770470268136838
:103FB00023F4907313600268936823F00103936005
:103FC000202380F87A30704790F87930DBB2212BCB
:103FD00037D1B0F862309BB2A3B903681A6812F007
:103FE000005F0AD09A6822F400029A60026813689F
:103FF00043F040031360002070471A6822F08002EB
:104000001A60F3E78368B3F5805F0DD0C36D5A1C67
:10401000C26502681B781385B0F86230013B9BB221
:10402000A0F86230002070470369002BEED1C36D09
:1040300002681B88C3F308031385C36D0233C3658D
:10404000EAE70220704708B501680B6823F04003D7
:104050000B60202380F8793008F096FF002008BD1F
:104060007047B0F86C2090F87A30DBB2222B31D157
:1040700010B503689B8C9BB28168B1F5805F0ED050
:10408000D2B2416E4C1C44661A400A70B0F86A30D5
:10409000013B9BB2A0F86A305BB1002010BD016902
:1040A0000029EDD1416E1A400A80436E0233436607
:1040B000ECE70268136823F4907313600268936856
:1040C00023F001039360202380F87A30FFF7C8FFC4
:1040D0000020E3E70268138B43F0080313830220F8
:1040E0007047704770B504460268D36910689168DC
:1040F00013F00F0508D113F0200F05D010F0200F9A
:104100006BD111F0805F68D1002D78D0564D0D40F5
:1041100002D110F4907F72D013F0010F07D010F489
:10412000807F04D001261662E26F3243E26713F00B
:10413000020F09D011F0010F06D022680226166284
:10414000E26F42F00402E26713F0040F09D011F0AD
:10415000010F06D0226804261662E26F42F00202C6
:10416000E26713F0080F09D010F0200F00D12DB135
:10417000226808251562E26F2A43E267E26F7AB38C
:1041800013F0200F08D010F0200F02D111F0805F43
:1041900002D02046FFF765FFE36F13F0080F04D14C
:1041A00023689B6813F0400F23D02046FFF7FEFEE4
:1041B00023689A6812F0400F17D09A6822F04002E4
:1041C0009A60636F6BB1294A1A65606FFCF734FB24
:1041D00030B1606F036D984702E02046FFF741FF62
:1041E00070BD2046FFF77DFFFAE72046FFF779FF15
:1041F000F6E72046FFF775FF0023E367F0E713F4C7
:10420000801F02D011F4800F19D113F0800F05D058
:1042100010F0800F1FD111F4000F1CD113F0400FCC
:1042200002D010F0400F1AD113F4000FD8D010F0C4
:10423000804FD5D0136823F080431360D0E74FF44C
:1042400080131362202384F8793084F87A30204672
:1042500000F01AFEC4E72046FFF7B6FEC0E720468E
:10426000FFF7F1FEBCE700BF01000010714200083B
:1042700008B5806B0023A0F86A30A0F86230FFF721
:1042800030FF08BD2DE9F04387B004460168826A1B
:1042900083680069034360690343E0690343134390
:1042A0000868874A02401A430A602268536823F468
:1042B0004053E1680B435360A2692168814B9942E6
:1042C00001D0236A1A43A36AB3F1005F2FD0886834
:1042D0007D4B034013438B602268D36A23F00F03A6
:1042E000616A0B43D3622368784A934224D0784AA8
:1042F00093425ED0774A934275D0774A934200F05A
:104300008C80764A934200F0A280754A934200F076
:10431000B880744A934200F0F580734A934200F0EB
:104320000881684A934200F01B81802531E1E36AED
:10433000206B03431A43CAE76C4A526D02F03802FD
:10434000282A2AD8DFE812F02401290029002900B0
:1043500029002900290029002B0029002900290013
:1043600029002900290029002D0029002900290001
:1043700029002900290029002F00290029002900EF
:1043800029002900290029003100290029002900DD
:10439000290029002900290033008025F9E004259F
:1043A000F7E04025F5E00825F3E01025F1E02025B1
:1043B000EFE04E4A526D02F00702052A07D8DFE807
:1043C00012F0360108000A000C000E0010008025D3
:1043D000DFE00425DDE04025DBE00825D9E01025FD
:1043E000D7E02025D5E0414A526D02F00702052AA8
:1043F00007D8DFE812F01E0108000A000C000E00CA
:1044000010008025C5E00425C3E04025C1E0082553
:10441000BFE01025BDE02025BBE0344A526D02F01C
:104420000702052A07D8DFE812F0060108000A0093
:104430000C000E0010008025ABE00425A9E040250B
:10444000A7E00825A5E01025A3E02025A1E0274A44
:10445000526D02F00702052A07D8DFE812F0EE00DD
:1044600008000A000C000E001000802591E00425D1
:104470008FE040258DE008258BE0102589E0202580
:1044800087E01A4A526D02F03802282A16D8DFE86F
:1044900002F0D6151515151515152F151515151529
:1044A0001515311515151515151533151515151582
:1044B000151535151515151515153700802568E0E6
:1044C000F369FFCF000C0058FFF4FF11001001400A
:1044D0000044004000480040004C004000500040B4
:1044E0000014014000780040007C00400044025865
:1044F00004254EE040254CE008254AE0102548E020
:10450000202546E09B4A526D02F00702052A04D896
:10451000DFE802F0970507090B0D802539E0042537
:1045200037E0402535E0082533E0102531E020252F
:104530002FE0904A526D02F00702052A04D8DFE806
:1045400002F0820507090B0D802522E0042520E0FA
:1045500040251EE008251CE010251AE0202518E063
:1045600002F50E32926D02F00702052A04D8DFE848
:1045700002F06C0507090B0D80250AE0042508E010
:10458000402506E0082504E0102502E0202500E093
:104590000125794A93425AD0E269B2F5004F00F002
:1045A0009181402D00F2FB82DFE815F05A026C0287
:1045B000F902F9027E02F902F902F902A602F902F1
:1045C000F902F902F902F902F902F902D002F9023C
:1045D000F902F902F902F902F902F902F902F90203
:1045E000F902F902F902F902F902F902E002F9020C
:1045F000F902F902F902F902F902F902F902F902E3
:10460000F902F902F902F902F902F902F902F902D2
:10461000F902F902F902F902F902F902F902F902C2
:10462000F902F902F902F902F902F90292020025EF
:10463000AFE70025ADE70025ABE70025A9E7012599
:10464000A7E70025A5E70025A3E70225A1E7082D98
:1046500036D007D9202D3FD0402D2CD0102D0AD098
:1046600001206CE1022D08D0042DF9D103A8FEF73A
:10467000CFF8049B04E0414B05E0FEF7B3F8034696
:10468000002B00F08482666806EB46029A4200F234
:104690008082B3EB063F00F27E82082D00F0958009
:1046A0001FD9202D00F0F580402D6FD0102D00F087
:1046B000D280012054E06846FEF790F9019BDFE7C5
:1046C0002C4B1B6813F0200F09D02A4B1868C0F33D
:1046D000C1002B4BC340D3E74FF40043D3E7284B33
:1046E000D1E7022D20D0042DE3D103A8FEF790F8E6
:1046F0000025626A234B33F81220002304982946D0
:10470000FBF7EEFD0F0247EA1067060262685008E9
:104710002B4616EB000847F1000940464946FBF7D7
:10472000DFFD034628461BE0FEF75CF80025626AC1
:10473000144B33F8122000232946FBF7D1FD0F025A
:1047400047EA10670602626850082B4616EB00081D
:1047500047F1000940464946FBF7C2FD034628469B
:10476000A3F54071084A914200F217822268D36093
:10477000E5E000BF00440258000C005800093D006D
:104780000090D0032CD90008FFFC0F006846FEF70C
:1047900025F90025626AA44B33F812200023019802
:1047A0002946FBF79DFD0F0247EA10670602626883
:1047B00050082B4616EB000847F1000940464946D1
:1047C000FBF78EFD03462846CAE7984B1B6813F09B
:1047D000200F22D0954B1968C1F3C1010025626AF0
:1047E000914B33F8122000239148C8402946FBF72B
:1047F00077FD4FEA012949EA10694FEA002870085D
:1048000032462B4618EB000649F100073046394680
:10481000FBF766FD03462846A2E7626A824B33F83F
:104820001220002382480021FBF75AFD4FEA01299C
:1048300049EA10694FEA00287008002532462B46E5
:1048400018EB000649F1000730463946FBF748FDF2
:104850000346284684E7626A734B33F8122000232C
:1048600074480021FBF73CFD4FEA012949EA106931
:104870004FEA00287008002532462B4618EB000648
:1048800049F1000730463946FBF72AFD0346284622
:1048900066E7626A644B33F812204FF40043B3FBBF
:1048A000F2F34FF000094FEA03287708002532465B
:1048B0002B4618EB070049F10001FBF711FD0346F9
:1048C00028464DE7402D00F2C880DFE805F0213B87
:1048D000C6C64CC6C6C672C6C6C6C6C6C6C69CC670
:1048E000C6C6C6C6C6C6C6C6C6C6C6C6C6C6B5C679
:1048F000C6C6C6C6C6C6C6C6C6C6C6C6C6C6C6C658
:10490000C6C6C6C6C6C6C6C6C6C6C6C6C6C65F0074
:10491000FDF796F9626A444B33F81220B0FBF2F0CF
:1049200063685A0802EB4002B2FBF3F292B2002035
:1049300022F00F03C2F342021A432368DA6007B081
:10494000BDE8F083FDF792F9626A374B33F8122025
:10495000B0FBF2F063685A0802EB4002B2FBF3F2DC
:1049600092B20020E4E703A8FDF752FF626A2E4BE3
:1049700033F81230049AB2FBF3F361684A0802EB91
:104980004302B2FBF1F292B20020D1E76846FEF793
:1049900025F8626A244B33F81230019AB2FBF3F324
:1049A00061684A0802EB4302B2FBF1F292B20020C6
:1049B000BEE71E4B1B6813F0200F14D01B4B1A6868
:1049C000C2F3C1021A4BD340616A174A32F8112070
:1049D000B3FBF2F361684A0802EB4302B2FBF1F267
:1049E00092B20020A4E7626A0F4B33F81220104BFA
:1049F000B3FBF2F361684A0802EB4302B2FBF1F247
:104A000092B2002094E7626A074B33F81230094AE9
:104A1000B2FBF3F361684A0802EB4302B2FBF1F226
:104A200092B2002084E700BF2CD90008004402584D
:104A30000090D00300093D00626A5A4B33F81230EF
:104A40004FF40042B2FBF3F361684A0802EB430201
:104A5000B2FBF1F292B200206AE70120002267E780
:104A6000FDF7EEF8626A4F4B33F81230B0FBF3F308
:104A7000626803EB5203B3FBF2F322689BB2D3608C
:104A800000205CE7FDF7F2F8626A464B33F812301B
:104A9000B0FBF3F3626803EB5203B3FBF2F322685B
:104AA0009BB2D36000204AE703A8FDF7B1FE626A1B
:104AB0003C4B33F81220049BB3FBF2F3626803EB28
:104AC0005203B3FBF2F322689BB2D360002036E7B7
:104AD0006846FDF783FF626A324B33F81220019B70
:104AE000B3FBF2F3626803EB5203B3FBF2F3226809
:104AF0009BB2D360002022E72B4A126812F0200FED
:104B000014D0294A1168C1F3C101284ACA40606A19
:104B1000244931F81010B2FBF1F2616802EB510246
:104B2000B2FBF1F292B2DA60002008E7616A1D4A36
:104B300032F811101D4AB2FBF1F2616802EB51022A
:104B4000B2FBF1F292B2DA600020F8E6616A154A2F
:104B500032F81110164AB2FBF1F2616802EB510211
:104B6000B2FBF1F292B2DA600020E8E6616A0D4A27
:104B700032F811104FF40042B2FBF1F2616802EB1F
:104B80005102B2FBF1F292B2DA600020D7E60020C7
:104B9000D5E60120D3E60120D1E60120CFE60120B1
:104BA000CDE600BF2CD90008004402580090D00385
:104BB00000093D00436B13F0010F06D002685368F3
:104BC00023F40033816B0B435360436B13F0020FEC
:104BD00006D00268536823F48033C16B0B435360E3
:104BE000436B13F0040F06D00268536823F480234C
:104BF000016C0B435360436B13F0080F06D002683F
:104C0000536823F40043416C0B435360436B13F030
:104C1000100F06D00268936823F48053816C0B4315
:104C20009360436B13F0200F06D00268936823F45F
:104C30000053C16C0B439360436B13F0400F0AD0D9
:104C40000268536823F48013016D0B435360036DB6
:104C5000B3F5801F0BD0436B13F0800F06D00268B2
:104C6000536823F40023816D0B435360704702683F
:104C7000536823F4C003416D0B435360EBE72DE908
:104C8000F04105460F4616469846069C2B68DB69A0
:104C900037EA03030CBF01230023B3421DD1B4F153
:104CA000FF3FF3D02CB1FBF70FFDA0EB0800A042B3
:104CB000ECD92A68136823F4D07313602A689368C8
:104CC00023F001039360202385F8793085F87A304A
:104CD000002385F87830032000E00020BDE8F08153
:104CE0002DE9F04182B01E4690F87930DBB2202BDE
:104CF00052D104460D469046B2FA82F35B09002970
:104D000008BF0123002B4CD190F87830012B4AD0FA
:104D1000012380F878300023C367212380F879309D
:104D2000FBF7D2FC0746A4F86080A4F8628003E099
:104D300023682A781A850135B4F862309BB2DBB15A
:104D4000B4F86230013B9BB2A4F8623000963B4657
:104D5000002280212046FFF792FF30BBA368B3F505
:104D6000805FE5D12369002BE2D1226835F8023B50
:104D7000C3F308031385DFE700963B46002240217A
:104D80002046FFF77CFF034688B9202284F879206B
:104D9000002284F8782000E00223184602B0BDE823
:104DA000F0810123F9E70223F7E70323F5E7032363
:104DB000F3E730B583B004460023C367FBF784FCF8
:104DC000054623681B6813F0080F0ED123681B6883
:104DD00013F0040F17D1202384F8793084F87A3047
:104DE000002084F8780003B030BD6FF07E4300935C
:104DF000034600224FF400112046FFF740FF002831
:104E0000E4D00320EFE76FF07E4300932B460022AF
:104E10004FF480012046FFF732FF0028DBD003204B
:104E2000E1E778B310B5044690F879300BB324234A
:104E300084F879302268136823F001031360204658
:104E4000FFF720FA012813D0636BBBB922685368BF
:104E500023F4904353602268936823F02A039360FD
:104E60002268136843F0010313602046FFF7A1FF97
:104E700010BD80F8783005F0E1F9D8E72046FFF75B
:104E800099FEE3E701207047704700000B4B1B6859
:104E90000B4AA2FB03235A0A41F2883303FB02F3B5
:104EA0005A1E43B1416B134611F0800FF8D0054BE9
:104EB0008363002070474FF0004070471C010020C2
:104EC000D34D6210C5002000134B1B68134AA2FB90
:104ED00003235A0A41F2883303FB02F35A1EC3B17B
:104EE000416B134611F0450FF8D0436B13F0040FDC
:104EF00007D1436B13F0010F07D1094B83630020E7
:104F00007047042383631846704701238363184660
:104F100070474FF0004070471C010020D34D6210D5
:104F2000C50020000F4B1B680F4AA2FB03235A0A3F
:104F300041F2883303FB02F35A1E83B1416B1346DF
:104F400011F0450FF8D0436B13F0040F03D1074B5A
:104F500083630020704704238363184670474FF033
:104F6000004070471C010020D34D6210C500200096
:104F7000164B1B68164AA2FB03235A0A41F28833D8
:104F800003FB02F35A1EE3B1416B134611F0450FC8
:104F9000F8D0436B13F0040F0BD1436B13F0010FE8
:104FA0000BD1436B13F0400F0ED0402383630020DE
:104FB00070470423836318467047012383631846B0
:104FC00070474FF000407047002070471C010020E0
:104FD000D34D621084B010B402AC84E80E000B46CE
:104FE000039A1343049A1343059A1343069A1343EF
:104FF0004168044A0A401343436000205DF8044BB3
:1050000004B07047002CFCFFD0F8800070470B689C
:10501000C0F880300020704708B5036843F00303F0
:1050200003600220FBF756FB002008BD006800F07B
:10503000030070470B6883604B688A681343CA6833
:1050400013430A691343C168024A0A401343C36009
:1050500000207047C0E0FEFF0069C0B27047143006
:105060004058704738B5514B1B68514CA4FB034363
:105070005B0A02FB03F2541E002A5ED0426B4D4BCA
:1050800013402246002BF6D0436B13F0040F07D1D8
:10509000436B13F0010F07D00123836318464EE0E2
:1050A0000423836318464AE00D460446424B83635B
:1050B000FFF7D2FFA84201D0012040E000212046A6
:1050C000FFF7CDFF3D4B0340D3B300283ADB10F090
:1050D000804F3AD110F0005F39D110F0805F38D1A5
:1050E00010F0006F38D110F0806F38D110F0807F51
:1050F00038D110F4000F38D110F4800F38D110F4EB
:10510000001F38D110F4801F38D110F4802F38D10F
:1051100010F4003F38D110F4803F38D110F4004F24
:1051200038D110F4804F38D110F4005F38D110F02E
:10513000080F38D04FF4000001E04FF0004038BDB8
:105140000020FCE74FF00070F9E74020F7E78020EF
:10515000F5E74FF48070F2E74FF40070EFE74FF49B
:105160008060ECE74FF40060E9E74FF48050E6E739
:105170004FF40050E3E74FF48040E0E74FF4004085
:10518000DDE74FF40030DAE74FF48020D7E74FF443
:105190000020D4E74FF48010D1E74FF40010CEE7A1
:1051A0004FF48000CBE74FF48030C8E71C010020AB
:1051B000D34D621045002000C500200008E0FFFD2F
:1051C00070B5244B1B68244CA4FB03435C0A41F2DA
:1051D000883303FB04F35C1E9BB3456B234615F039
:1051E000450FF8D0436B13F0040F07D1436B13F056
:1051F000010F07D001238363184624E0042383634F
:10520000184620E016460D460446FFF725FFA84243
:1052100001D0012017E0114BA36300212046FFF7C6
:105220001EFF10F4604F08D010F4804F0CD110F422
:10523000004F0CD04FF4805005E0000C308000206F
:1052400001E04FF0004070BD4FF40050FBE74FF419
:105250008030F8E71C010020D34D6210C50020000B
:105260000B6843624B6883628B68CA6813430A69A0
:1052700013434A691343C26A22F0FF021343C36215
:105280000020704730B587B0054601911024029484
:105290004FF480730393002304934FF480530593DA
:1052A00001A9FFF7C7FE41F2883221462846FFF7E1
:1052B000D9FE07B030BD30B587B005460191112445
:1052C00002944FF480730393002304934FF48053AC
:1052D000059301A9FFF7AEFE41F288322146284628
:1052E000FFF7C0FE07B030BD30B587B0054601916D
:1052F000122402944FF480730393002304934FF419
:105300008053059301A9FFF795FE41F288322146AB
:105310002846FFF7A7FE07B030BD30B587B0054679
:105320000191182402944FF4807303930023049393
:105330004FF48053059301A9FFF77CFE41F28832B8
:1053400021462846FFF78EFE07B030BD30B587B046
:1053500005460191192402944FF4807303930023AE
:1053600004934FF48053059301A9FFF763FE41F2C4
:10537000883221462846FFF775FE07B030BD000091
:1053800030B587B00446002301930C2502954FF4F5
:105390008072039204934FF480530593C36843F0E3
:1053A0008003C360C36823F04003C36001A9FFF713
:1053B00041FE054A29462046FFF754FEE36823F0E4
:1053C0008003E36007B030BD00E1F50530B587B07C
:1053D00005460192072402944FF48073039300233F
:1053E00004934FF48053059301A9FFF723FE41F284
:1053F000883221462846FFF735FE07B030BD10B58C
:1054000086B00446002301930293039304934FF460
:105410008053059301A9FFF70DFE2046FFF736FDE7
:1054200006B010BD10B586B004464FF4D573019395
:10543000082302934FF480730393002304934FF4E3
:105440008053059301A9FFF7F5FD2046FFF790FD76
:1054500006B010BD30B587B00546019137240294DF
:105460004FF480730393002304934FF48053059308
:1054700001A9FFF7DFFD41F2883221462846FFF7F8
:10548000F1FD07B030BD10B586B004460191292367
:1054900002934FF480730393002304934FF48053DB
:1054A000059301A9FFF7C6FD2046FFF73BFD06B0B7
:1054B00010BD30B587B005460191062402944FF423
:1054C00080730393002304934FF48053059301A941
:1054D000FFF7B0FD41F2883221462846FFF7C2FDB2
:1054E00007B030BD30B587B00546002301933324A3
:1054F00002944FF48072039204934FF48053059307
:1055000001A9FFF797FD41F2883221462846FFF7AF
:10551000A9FD07B030BD10B586B004460023019345
:10552000022202924FF44072039204934FF480538C
:10553000059301A9FFF77EFD2046FFF7C5FC06B0E5
:1055400010BD10B586B004460191092302934FF4B3
:1055500040730393002304934FF48053059301A9F0
:10556000FFF768FD2046FFF7AFFC06B010BD70B531
:1055700086B005460E4600230193032402944FF49F
:105580008072039204934FF48053059301A9FFF7AF
:1055900051FD324621462846FFF712FE06B070BD87
:1055A00030B587B0054601910D2402944FF4807305
:1055B0000393002304934FF48053059301A9FFF74D
:1055C00039FD41F2883221462846FFF74BFD07B0EE
:1055D00030BD30B587B00546002301930D240294F9
:1055E0004FF48072039204934FF48053059301A902
:1055F000FFF720FD41F2883221462846FFF732FDB1
:1056000007B030BD30B587B005460191062402943D
:105610004FF480730393002304934FF48053059356
:1056200001A9FFF707FD41F2883221462846FFF71E
:1056300019FD07B030BD000008B5044B03EB800234
:10564000526852680344187A904708BD300200201F
:1056500008B5084B1B5C53B9064B01221A5403EBE7
:105660008002526812681844007A904708BD0020F2
:10567000FCE700BF3002002038B5044C04EB800585
:105680006D68AD680444207AA84738BD3002002018
:1056900038B5044C04EB80056D68ED680444207A4D
:1056A000A84738BD3002002010B5044B03EB80043E
:1056B000646824690344187AA04710BD30020020B2
:1056C0004278007840EA02207047C278837843EA43
:1056D0000222437843EA0223007840EA032070471D
:1056E0000170090A417070470170C1F307234370CC
:1056F000C1F307438370090EC170704713462AB186
:105700000A78027001300131013BF9D17047017014
:105710000130013AFBD1704730B4451C037808785A
:105720001B1A013A04D04C1C28462146002BF4D009
:10573000184630BC704700E0013003780BB18B4253
:10574000FAD118467047000030B400252B4601E01E
:1057500001250133072B15D81A01174CA258002A2E
:10576000F6D00468A242F4D1134A02EB0312546843
:1057700082689442EDD1104A02EB031294684269A8
:105780009442E6D1082B0AD0A1B90B4A02EB0313CD
:105790009B89B3F5807F09D0002030BC7047022977
:1057A00008BF45F001051DB10020F6E71020F4E721
:1057B0001220F2E71020F0E7A8010020002000E00E
:1057C0000130072804D80301034AD358002BF7D12E
:1057D000083818BF01207047A801002070B40023CA
:1057E00000E00133072B13D81A01244CA458026897
:1057F0009442F6D1214A02EB031254688268944223
:10580000EFD11E4A02EB0312946842699442E8D138
:10581000082B29D021B1194A02EB0312928952BBFD
:1058200021BB164A02EB03129189013189B2134A56
:1058300002EB03129181581C70BC70470133072B97
:1058400004D81A010D4CA258002AF7D1082B10D009
:1058500006680A4D1C012A192E518468546040695B
:10586000906000209081D5E70023E8E74FF4807135
:10587000DDE70020E0E70020DEE700BFA801002010
:105880000138072815D80D4B03EB00139B89B3F59E
:10589000807F03D01BB1013B9BB200E00023074A8D
:1058A00002EB0012938133B903010020034AD05068
:1058B0007047022070470020704700BFA8010020F9
:1058C000002303E05DF8044B70470133072B11D828
:1058D0001A0109498A588242F7D110B41A010024EA
:1058E0008C500133072BEDD81A0103498A588242A4
:1058F000F7D1F3E7704700BFA801002002398369A0
:10590000023B8B4204D94389C06A01FB0300704704
:10591000002070470268C36A0433490A5289B1FB08
:10592000F2F1186830B1814202D3091A0833F8E75E
:1059300058680844704770B506460D4601F11A00D4
:10594000FFF7BEFE3378032B00D070BD044605F18F
:105950001400FFF7B5FE44EA0040F6E770B50646CE
:105960000C46154691B204F11A00FFF7B9FE3378E0
:10597000032B00D070BD290C04F11400FFF7B0FE1A
:10598000F8E700234B72C36973B370B50022134666
:1059900005E0092C0ED08D186B72013223460A2BBC
:1059A0000DD8056A5C1CEB5C202BF7D0052BF0D1E1
:1059B000E523EEE78D182E266E720132EBE70D46D9
:1059C00004460A4400235372036ADB7A0B72006AAE
:1059D0001C30FFF77AFE2860206A1630FFF775FE4C
:1059E000E880000CA88070BD704700002DE9F84FDA
:1059F00082468B46D1F8008000F124090B22202139
:105A00004846FFF784FE00252B46082729E001368B
:105A100018F806305C2B18BF2F2BF8D04644CBF873
:105A20000060002D45D09AF82430E52B36D0202C8C
:105A300038D804238AF82F30002036E014F0800F85
:105A400028D121461C48FFF776FE80BBA4F16103F4
:105A5000DBB2192B01D8203CE4B209F8054001352E
:105A600033465E1C18F80340202CD7D95C2C18BF95
:105A70002F2CCDD02E2C18BFAF42DFD82E3C18BF14
:105A800001240B2F14BF274644F0010767B90825EE
:105A90000B27E5E7803C094B1C5DD2E705238AF81C
:105AA0002430C4E70023C5E70620BDE8F88F0620B0
:105AB000FBE70620F9E700BF7CDA000844D90008BC
:105AC000016809B10A4603E04FF0FF3308E00132F4
:105AD00013783A2B18BF202BF9D83A2B02D0002389
